{
  "contractName": "certificateToNFT",
  "abi": [
    {
      "inputs": [
        {
          "internalType": "address",
          "name": "_institute",
          "type": "address"
        },
        {
          "internalType": "string",
          "name": "name",
          "type": "string"
        },
        {
          "internalType": "string",
          "name": "symbol",
          "type": "string"
        }
      ],
      "stateMutability": "nonpayable",
      "type": "constructor"
    },
    {
      "inputs": [
        {
          "internalType": "address",
          "name": "sender",
          "type": "address"
        },
        {
          "internalType": "uint256",
          "name": "tokenId",
          "type": "uint256"
        },
        {
          "internalType": "address",
          "name": "owner",
          "type": "address"
        }
      ],
      "name": "ERC721IncorrectOwner",
      "type": "error"
    },
    {
      "inputs": [
        {
          "internalType": "address",
          "name": "operator",
          "type": "address"
        },
        {
          "internalType": "uint256",
          "name": "tokenId",
          "type": "uint256"
        }
      ],
      "name": "ERC721InsufficientApproval",
      "type": "error"
    },
    {
      "inputs": [
        {
          "internalType": "address",
          "name": "approver",
          "type": "address"
        }
      ],
      "name": "ERC721InvalidApprover",
      "type": "error"
    },
    {
      "inputs": [
        {
          "internalType": "address",
          "name": "operator",
          "type": "address"
        }
      ],
      "name": "ERC721InvalidOperator",
      "type": "error"
    },
    {
      "inputs": [
        {
          "internalType": "address",
          "name": "owner",
          "type": "address"
        }
      ],
      "name": "ERC721InvalidOwner",
      "type": "error"
    },
    {
      "inputs": [
        {
          "internalType": "address",
          "name": "receiver",
          "type": "address"
        }
      ],
      "name": "ERC721InvalidReceiver",
      "type": "error"
    },
    {
      "inputs": [
        {
          "internalType": "address",
          "name": "sender",
          "type": "address"
        }
      ],
      "name": "ERC721InvalidSender",
      "type": "error"
    },
    {
      "inputs": [
        {
          "internalType": "uint256",
          "name": "tokenId",
          "type": "uint256"
        }
      ],
      "name": "ERC721NonexistentToken",
      "type": "error"
    },
    {
      "anonymous": false,
      "inputs": [
        {
          "indexed": true,
          "internalType": "address",
          "name": "owner",
          "type": "address"
        },
        {
          "indexed": true,
          "internalType": "address",
          "name": "approved",
          "type": "address"
        },
        {
          "indexed": true,
          "internalType": "uint256",
          "name": "tokenId",
          "type": "uint256"
        }
      ],
      "name": "Approval",
      "type": "event"
    },
    {
      "anonymous": false,
      "inputs": [
        {
          "indexed": true,
          "internalType": "address",
          "name": "owner",
          "type": "address"
        },
        {
          "indexed": true,
          "internalType": "address",
          "name": "operator",
          "type": "address"
        },
        {
          "indexed": false,
          "internalType": "bool",
          "name": "approved",
          "type": "bool"
        }
      ],
      "name": "ApprovalForAll",
      "type": "event"
    },
    {
      "anonymous": false,
      "inputs": [
        {
          "indexed": false,
          "internalType": "uint256",
          "name": "_fromTokenId",
          "type": "uint256"
        },
        {
          "indexed": false,
          "internalType": "uint256",
          "name": "_toTokenId",
          "type": "uint256"
        }
      ],
      "name": "BatchMetadataUpdate",
      "type": "event"
    },
    {
      "anonymous": false,
      "inputs": [
        {
          "indexed": false,
          "internalType": "uint256",
          "name": "_tokenId",
          "type": "uint256"
        }
      ],
      "name": "MetadataUpdate",
      "type": "event"
    },
    {
      "anonymous": false,
      "inputs": [
        {
          "indexed": true,
          "internalType": "address",
          "name": "from",
          "type": "address"
        },
        {
          "indexed": true,
          "internalType": "address",
          "name": "to",
          "type": "address"
        },
        {
          "indexed": true,
          "internalType": "uint256",
          "name": "tokenId",
          "type": "uint256"
        }
      ],
      "name": "Transfer",
      "type": "event"
    },
    {
      "inputs": [
        {
          "internalType": "address",
          "name": "to",
          "type": "address"
        },
        {
          "internalType": "uint256",
          "name": "tokenId",
          "type": "uint256"
        }
      ],
      "name": "approve",
      "outputs": [],
      "stateMutability": "nonpayable",
      "type": "function"
    },
    {
      "inputs": [
        {
          "internalType": "address",
          "name": "owner",
          "type": "address"
        }
      ],
      "name": "balanceOf",
      "outputs": [
        {
          "internalType": "uint256",
          "name": "",
          "type": "uint256"
        }
      ],
      "stateMutability": "view",
      "type": "function",
      "constant": true
    },
    {
      "inputs": [
        {
          "internalType": "uint256",
          "name": "tokenId",
          "type": "uint256"
        }
      ],
      "name": "getApproved",
      "outputs": [
        {
          "internalType": "address",
          "name": "",
          "type": "address"
        }
      ],
      "stateMutability": "view",
      "type": "function",
      "constant": true
    },
    {
      "inputs": [
        {
          "internalType": "address",
          "name": "owner",
          "type": "address"
        },
        {
          "internalType": "address",
          "name": "operator",
          "type": "address"
        }
      ],
      "name": "isApprovedForAll",
      "outputs": [
        {
          "internalType": "bool",
          "name": "",
          "type": "bool"
        }
      ],
      "stateMutability": "view",
      "type": "function",
      "constant": true
    },
    {
      "inputs": [
        {
          "internalType": "address",
          "name": "",
          "type": "address"
        }
      ],
      "name": "isCertificateNFTAlreadyExists",
      "outputs": [
        {
          "internalType": "bool",
          "name": "",
          "type": "bool"
        }
      ],
      "stateMutability": "view",
      "type": "function",
      "constant": true
    },
    {
      "inputs": [],
      "name": "name",
      "outputs": [
        {
          "internalType": "string",
          "name": "",
          "type": "string"
        }
      ],
      "stateMutability": "view",
      "type": "function",
      "constant": true
    },
    {
      "inputs": [
        {
          "internalType": "uint256",
          "name": "tokenId",
          "type": "uint256"
        }
      ],
      "name": "ownerOf",
      "outputs": [
        {
          "internalType": "address",
          "name": "",
          "type": "address"
        }
      ],
      "stateMutability": "view",
      "type": "function",
      "constant": true
    },
    {
      "inputs": [
        {
          "internalType": "address",
          "name": "from",
          "type": "address"
        },
        {
          "internalType": "address",
          "name": "to",
          "type": "address"
        },
        {
          "internalType": "uint256",
          "name": "tokenId",
          "type": "uint256"
        }
      ],
      "name": "safeTransferFrom",
      "outputs": [],
      "stateMutability": "nonpayable",
      "type": "function"
    },
    {
      "inputs": [
        {
          "internalType": "address",
          "name": "from",
          "type": "address"
        },
        {
          "internalType": "address",
          "name": "to",
          "type": "address"
        },
        {
          "internalType": "uint256",
          "name": "tokenId",
          "type": "uint256"
        },
        {
          "internalType": "bytes",
          "name": "data",
          "type": "bytes"
        }
      ],
      "name": "safeTransferFrom",
      "outputs": [],
      "stateMutability": "nonpayable",
      "type": "function"
    },
    {
      "inputs": [
        {
          "internalType": "address",
          "name": "operator",
          "type": "address"
        },
        {
          "internalType": "bool",
          "name": "approved",
          "type": "bool"
        }
      ],
      "name": "setApprovalForAll",
      "outputs": [],
      "stateMutability": "nonpayable",
      "type": "function"
    },
    {
      "inputs": [],
      "name": "symbol",
      "outputs": [
        {
          "internalType": "string",
          "name": "",
          "type": "string"
        }
      ],
      "stateMutability": "view",
      "type": "function",
      "constant": true
    },
    {
      "inputs": [
        {
          "internalType": "address",
          "name": "from",
          "type": "address"
        },
        {
          "internalType": "address",
          "name": "to",
          "type": "address"
        },
        {
          "internalType": "uint256",
          "name": "tokenId",
          "type": "uint256"
        }
      ],
      "name": "transferFrom",
      "outputs": [],
      "stateMutability": "nonpayable",
      "type": "function"
    },
    {
      "inputs": [
        {
          "internalType": "address",
          "name": "_studentAddress",
          "type": "address"
        },
        {
          "internalType": "string",
          "name": "ipfs_hash",
          "type": "string"
        }
      ],
      "name": "safeMint",
      "outputs": [],
      "stateMutability": "nonpayable",
      "type": "function"
    },
    {
      "inputs": [
        {
          "internalType": "address",
          "name": "_studentAddress",
          "type": "address"
        }
      ],
      "name": "getIpfsHash",
      "outputs": [
        {
          "internalType": "string",
          "name": "ipfs_hash",
          "type": "string"
        },
        {
          "internalType": "address",
          "name": "student",
          "type": "address"
        }
      ],
      "stateMutability": "view",
      "type": "function",
      "constant": true
    },
    {
      "inputs": [
        {
          "internalType": "uint256",
          "name": "tokenId",
          "type": "uint256"
        }
      ],
      "name": "tokenURI",
      "outputs": [
        {
          "internalType": "string",
          "name": "",
          "type": "string"
        }
      ],
      "stateMutability": "view",
      "type": "function",
      "constant": true
    },
    {
      "inputs": [
        {
          "internalType": "bytes4",
          "name": "interfaceId",
          "type": "bytes4"
        }
      ],
      "name": "supportsInterface",
      "outputs": [
        {
          "internalType": "bool",
          "name": "",
          "type": "bool"
        }
      ],
      "stateMutability": "view",
      "type": "function",
      "constant": true
    }
  ],
  "bytecode": "0x608060405234801562000010575f80fd5b5060405162002e5a38038062002e5a83398181016040528101906200003691906200028c565b8181815f90816200004891906200055a565b5080600190816200005a91906200055a565b5050508260085f6101000a81548173ffffffffffffffffffffffffffffffffffffffff021916908373ffffffffffffffffffffffffffffffffffffffff1602179055505050506200063e565b5f604051905090565b5f80fd5b5f80fd5b5f73ffffffffffffffffffffffffffffffffffffffff82169050919050565b5f620000e282620000b7565b9050919050565b620000f481620000d6565b8114620000ff575f80fd5b50565b5f815190506200011281620000e9565b92915050565b5f80fd5b5f80fd5b5f601f19601f8301169050919050565b7f4e487b71000000000000000000000000000000000000000000000000000000005f52604160045260245ffd5b620001688262000120565b810181811067ffffffffffffffff821117156200018a576200018962000130565b5b80604052505050565b5f6200019e620000a6565b9050620001ac82826200015d565b919050565b5f67ffffffffffffffff821115620001ce57620001cd62000130565b5b620001d98262000120565b9050602081019050919050565b5f5b8381101562000205578082015181840152602081019050620001e8565b5f8484015250505050565b5f620002266200022084620001b1565b62000193565b9050828152602081018484840111156200024557620002446200011c565b5b62000252848285620001e6565b509392505050565b5f82601f83011262000271576200027062000118565b5b81516200028384826020860162000210565b91505092915050565b5f805f60608486031215620002a657620002a5620000af565b5b5f620002b58682870162000102565b935050602084015167ffffffffffffffff811115620002d957620002d8620000b3565b5b620002e7868287016200025a565b925050604084015167ffffffffffffffff8111156200030b576200030a620000b3565b5b62000319868287016200025a565b9150509250925092565b5f81519050919050565b7f4e487b71000000000000000000000000000000000000000000000000000000005f52602260045260245ffd5b5f60028204905060018216806200037257607f821691505b6020821081036200038857620003876200032d565b5b50919050565b5f819050815f5260205f209050919050565b5f6020601f8301049050919050565b5f82821b905092915050565b5f60088302620003ec7fffffffffffffffffffffffffffffffffffffffffffffffffffffffffffffffff82620003af565b620003f88683620003af565b95508019841693508086168417925050509392505050565b5f819050919050565b5f819050919050565b5f620004426200043c620004368462000410565b62000419565b62000410565b9050919050565b5f819050919050565b6200045d8362000422565b620004756200046c8262000449565b848454620003bb565b825550505050565b5f90565b6200048b6200047d565b6200049881848462000452565b505050565b5b81811015620004bf57620004b35f8262000481565b6001810190506200049e565b5050565b601f8211156200050e57620004d8816200038e565b620004e384620003a0565b81016020851015620004f3578190505b6200050b6200050285620003a0565b8301826200049d565b50505b505050565b5f82821c905092915050565b5f620005305f198460080262000513565b1980831691505092915050565b5f6200054a83836200051f565b9150826002028217905092915050565b620005658262000323565b67ffffffffffffffff81111562000581576200058062000130565b5b6200058d82546200035a565b6200059a828285620004c3565b5f60209050601f831160018114620005d0575f8415620005bb578287015190505b620005c785826200053d565b86555062000636565b601f198416620005e0866200038e565b5f5b828110156200060957848901518255600182019150602085019450602081019050620005e2565b8683101562000629578489015162000625601f8916826200051f565b8355505b6001600288020188555050505b505050505050565b61280e806200064c5f395ff3fe608060405234801561000f575f80fd5b50600436106100fe575f3560e01c806370a0823111610095578063c87b56dd11610064578063c87b56dd146102ba578063d204c45e146102ea578063d8da2fa814610306578063e985e9c514610337576100fe565b806370a082311461023457806395d89b4114610264578063a22cb46514610282578063b88d4fde1461029e576100fe565b80631de1fecd116100d15780631de1fecd1461019c57806323b872dd146101cc57806342842e0e146101e85780636352211e14610204576100fe565b806301ffc9a71461010257806306fdde0314610132578063081812fc14610150578063095ea7b314610180575b5f80fd5b61011c60048036038101906101179190611b15565b610367565b6040516101299190611b5a565b60405180910390f35b61013a610378565b6040516101479190611bfd565b60405180910390f35b61016a60048036038101906101659190611c50565b610407565b6040516101779190611cba565b60405180910390f35b61019a60048036038101906101959190611cfd565b610422565b005b6101b660048036038101906101b19190611d3b565b610438565b6040516101c39190611b5a565b60405180910390f35b6101e660048036038101906101e19190611d66565b610455565b005b61020260048036038101906101fd9190611d66565b610554565b005b61021e60048036038101906102199190611c50565b610573565b60405161022b9190611cba565b60405180910390f35b61024e60048036038101906102499190611d3b565b610584565b60405161025b9190611dc5565b60405180910390f35b61026c61063a565b6040516102799190611bfd565b60405180910390f35b61029c60048036038101906102979190611e08565b6106ca565b005b6102b860048036038101906102b39190611f72565b6106e0565b005b6102d460048036038101906102cf9190611c50565b6106fd565b6040516102e19190611bfd565b60405180910390f35b61030460048036038101906102ff9190612090565b61070f565b005b610320600480360381019061031b9190611d3b565b6108f1565b60405161032e9291906120ea565b60405180910390f35b610351600480360381019061034c9190612118565b6109d7565b60405161035e9190611b5a565b60405180910390f35b5f61037182610a65565b9050919050565b60605f805461038690612183565b80601f01602080910402602001604051908101604052809291908181526020018280546103b290612183565b80156103fd5780601f106103d4576101008083540402835291602001916103fd565b820191905f5260205f20905b8154815290600101906020018083116103e057829003601f168201915b5050505050905090565b5f61041182610ac5565b5061041b82610b4b565b9050919050565b610434828261042f610b84565b610b8b565b5050565b600a602052805f5260405f205f915054906101000a900460ff1681565b5f73ffffffffffffffffffffffffffffffffffffffff168273ffffffffffffffffffffffffffffffffffffffff16036104c5575f6040517f64a0ae920000000000000000000000000000000000000000000000000000000081526004016104bc9190611cba565b60405180910390fd5b5f6104d883836104d3610b84565b610b9d565b90508373ffffffffffffffffffffffffffffffffffffffff168173ffffffffffffffffffffffffffffffffffffffff161461054e578382826040517f64283d7b000000000000000000000000000000000000000000000000000000008152600401610545939291906121b3565b60405180910390fd5b50505050565b61056e83838360405180602001604052805f8152506106e0565b505050565b5f61057d82610ac5565b9050919050565b5f8073ffffffffffffffffffffffffffffffffffffffff168273ffffffffffffffffffffffffffffffffffffffff16036105f5575f6040517f89c62b640000000000000000000000000000000000000000000000000000000081526004016105ec9190611cba565b60405180910390fd5b60035f8373ffffffffffffffffffffffffffffffffffffffff1673ffffffffffffffffffffffffffffffffffffffff1681526020019081526020015f20549050919050565b60606001805461064990612183565b80601f016020809104026020016040519081016040528092919081815260200182805461067590612183565b80156106c05780601f10610697576101008083540402835291602001916106c0565b820191905f5260205f20905b8154815290600101906020018083116106a357829003601f168201915b5050505050905090565b6106dc6106d5610b84565b8383610da8565b5050565b6106eb848484610455565b6106f784848484610f11565b50505050565b6060610708826110c3565b9050919050565b60085f9054906101000a900473ffffffffffffffffffffffffffffffffffffffff1673ffffffffffffffffffffffffffffffffffffffff163373ffffffffffffffffffffffffffffffffffffffff161461079e576040517f08c379a000000000000000000000000000000000000000000000000000000000815260040161079590612232565b60405180910390fd5b600a5f8373ffffffffffffffffffffffffffffffffffffffff1673ffffffffffffffffffffffffffffffffffffffff1681526020019081526020015f205f9054906101000a900460ff1615610828576040517f08c379a000000000000000000000000000000000000000000000000000000000815260040161081f906122c0565b60405180910390fd5b5f60075f81548092919061083b9061230b565b91905055905061084b83826111ce565b61085581836111eb565b8060095f8573ffffffffffffffffffffffffffffffffffffffff1673ffffffffffffffffffffffffffffffffffffffff1681526020019081526020015f20819055506001600a5f8573ffffffffffffffffffffffffffffffffffffffff1673ffffffffffffffffffffffffffffffffffffffff1681526020019081526020015f205f6101000a81548160ff021916908315150217905550505050565b60605f600a5f8473ffffffffffffffffffffffffffffffffffffffff1673ffffffffffffffffffffffffffffffffffffffff1681526020019081526020015f205f9054906101000a900460ff1661097d576040517f08c379a0000000000000000000000000000000000000000000000000000000008152600401610974906123c2565b60405180910390fd5b5f60095f8573ffffffffffffffffffffffffffffffffffffffff1673ffffffffffffffffffffffffffffffffffffffff1681526020019081526020015f205490505f6109c8826106fd565b90508085935093505050915091565b5f60055f8473ffffffffffffffffffffffffffffffffffffffff1673ffffffffffffffffffffffffffffffffffffffff1681526020019081526020015f205f8373ffffffffffffffffffffffffffffffffffffffff1673ffffffffffffffffffffffffffffffffffffffff1681526020019081526020015f205f9054906101000a900460ff16905092915050565b5f634906490660e01b7bffffffffffffffffffffffffffffffffffffffffffffffffffffffff1916827bffffffffffffffffffffffffffffffffffffffffffffffffffffffff19161480610abe5750610abd82611245565b5b9050919050565b5f80610ad083611326565b90505f73ffffffffffffffffffffffffffffffffffffffff168173ffffffffffffffffffffffffffffffffffffffff1603610b4257826040517f7e273289000000000000000000000000000000000000000000000000000000008152600401610b399190611dc5565b60405180910390fd5b80915050919050565b5f60045f8381526020019081526020015f205f9054906101000a900473ffffffffffffffffffffffffffffffffffffffff169050919050565b5f33905090565b610b98838383600161135f565b505050565b5f80610ba884611326565b90505f73ffffffffffffffffffffffffffffffffffffffff168373ffffffffffffffffffffffffffffffffffffffff1614610be957610be881848661151e565b5b5f73ffffffffffffffffffffffffffffffffffffffff168173ffffffffffffffffffffffffffffffffffffffff1614610c7457610c285f855f8061135f565b600160035f8373ffffffffffffffffffffffffffffffffffffffff1673ffffffffffffffffffffffffffffffffffffffff1681526020019081526020015f205f82825403925050819055505b5f73ffffffffffffffffffffffffffffffffffffffff168573ffffffffffffffffffffffffffffffffffffffff1614610cf357600160035f8773ffffffffffffffffffffffffffffffffffffffff1673ffffffffffffffffffffffffffffffffffffffff1681526020019081526020015f205f82825401925050819055505b8460025f8681526020019081526020015f205f6101000a81548173ffffffffffffffffffffffffffffffffffffffff021916908373ffffffffffffffffffffffffffffffffffffffff160217905550838573ffffffffffffffffffffffffffffffffffffffff168273ffffffffffffffffffffffffffffffffffffffff167fddf252ad1be2c89b69c2b068fc378daa952ba7f163c4a11628f55a4df523b3ef60405160405180910390a4809150509392505050565b5f73ffffffffffffffffffffffffffffffffffffffff168273ffffffffffffffffffffffffffffffffffffffff1603610e1857816040517f5b08ba18000000000000000000000000000000000000000000000000000000008152600401610e0f9190611cba565b60405180910390fd5b8060055f8573ffffffffffffffffffffffffffffffffffffffff1673ffffffffffffffffffffffffffffffffffffffff1681526020019081526020015f205f8473ffffffffffffffffffffffffffffffffffffffff1673ffffffffffffffffffffffffffffffffffffffff1681526020019081526020015f205f6101000a81548160ff0219169083151502179055508173ffffffffffffffffffffffffffffffffffffffff168373ffffffffffffffffffffffffffffffffffffffff167f17307eab39ab6107e8899845ad3d59bd9653f200f220920489ca2b5937696c3183604051610f049190611b5a565b60405180910390a3505050565b5f8373ffffffffffffffffffffffffffffffffffffffff163b11156110bd578273ffffffffffffffffffffffffffffffffffffffff1663150b7a02610f54610b84565b8685856040518563ffffffff1660e01b8152600401610f769493929190612432565b6020604051808303815f875af1925050508015610fb157506040513d601f19601f82011682018060405250810190610fae9190612490565b60015b611032573d805f8114610fdf576040519150601f19603f3d011682016040523d82523d5f602084013e610fe4565b606091505b505f81510361102a57836040517f64a0ae920000000000000000000000000000000000000000000000000000000081526004016110219190611cba565b60405180910390fd5b805181602001fd5b63150b7a0260e01b7bffffffffffffffffffffffffffffffffffffffffffffffffffffffff1916817bffffffffffffffffffffffffffffffffffffffffffffffffffffffff1916146110bb57836040517f64a0ae920000000000000000000000000000000000000000000000000000000081526004016110b29190611cba565b60405180910390fd5b505b50505050565b60606110ce82610ac5565b505f60065f8481526020019081526020015f2080546110ec90612183565b80601f016020809104026020016040519081016040528092919081815260200182805461111890612183565b80156111635780601f1061113a57610100808354040283529160200191611163565b820191905f5260205f20905b81548152906001019060200180831161114657829003601f168201915b505050505090505f6111736115e1565b90505f8151036111875781925050506111c9565b5f825111156111bb5780826040516020016111a39291906124f5565b604051602081830303815290604052925050506111c9565b6111c4846115f7565b925050505b919050565b6111e7828260405180602001604052805f81525061165d565b5050565b8060065f8481526020019081526020015f20908161120991906126b5565b507ff8e1a15aba9398e019f0b49df1a4fde98ee17ae345cb5f6b5e2c27f5033e8ce7826040516112399190611dc5565b60405180910390a15050565b5f7f80ac58cd000000000000000000000000000000000000000000000000000000007bffffffffffffffffffffffffffffffffffffffffffffffffffffffff1916827bffffffffffffffffffffffffffffffffffffffffffffffffffffffff1916148061130f57507f5b5e139f000000000000000000000000000000000000000000000000000000007bffffffffffffffffffffffffffffffffffffffffffffffffffffffff1916827bffffffffffffffffffffffffffffffffffffffffffffffffffffffff1916145b8061131f575061131e82611678565b5b9050919050565b5f60025f8381526020019081526020015f205f9054906101000a900473ffffffffffffffffffffffffffffffffffffffff169050919050565b808061139757505f73ffffffffffffffffffffffffffffffffffffffff168273ffffffffffffffffffffffffffffffffffffffff1614155b156114c9575f6113a684610ac5565b90505f73ffffffffffffffffffffffffffffffffffffffff168373ffffffffffffffffffffffffffffffffffffffff161415801561141057508273ffffffffffffffffffffffffffffffffffffffff168173ffffffffffffffffffffffffffffffffffffffff1614155b8015611423575061142181846109d7565b155b1561146557826040517fa9fbf51f00000000000000000000000000000000000000000000000000000000815260040161145c9190611cba565b60405180910390fd5b81156114c757838573ffffffffffffffffffffffffffffffffffffffff168273ffffffffffffffffffffffffffffffffffffffff167f8c5be1e5ebec7d5bd14f71427d1e84f3dd0314c0f7b2291e5b200ac8c7c3b92560405160405180910390a45b505b8360045f8581526020019081526020015f205f6101000a81548173ffffffffffffffffffffffffffffffffffffffff021916908373ffffffffffffffffffffffffffffffffffffffff16021790555050505050565b6115298383836116e1565b6115dc575f73ffffffffffffffffffffffffffffffffffffffff168373ffffffffffffffffffffffffffffffffffffffff160361159d57806040517f7e2732890000000000000000000000000000000000000000000000000000000081526004016115949190611dc5565b60405180910390fd5b81816040517f177e802f0000000000000000000000000000000000000000000000000000000081526004016115d3929190612784565b60405180910390fd5b505050565b606060405180602001604052805f815250905090565b606061160282610ac5565b505f61160c6115e1565b90505f81511161162a5760405180602001604052805f815250611655565b80611634846117a1565b6040516020016116459291906124f5565b6040516020818303038152906040525b915050919050565b611667838361186b565b6116735f848484610f11565b505050565b5f7f01ffc9a7000000000000000000000000000000000000000000000000000000007bffffffffffffffffffffffffffffffffffffffffffffffffffffffff1916827bffffffffffffffffffffffffffffffffffffffffffffffffffffffff1916149050919050565b5f8073ffffffffffffffffffffffffffffffffffffffff168373ffffffffffffffffffffffffffffffffffffffff161415801561179857508273ffffffffffffffffffffffffffffffffffffffff168473ffffffffffffffffffffffffffffffffffffffff161480611759575061175884846109d7565b5b8061179757508273ffffffffffffffffffffffffffffffffffffffff1661177f83610b4b565b73ffffffffffffffffffffffffffffffffffffffff16145b5b90509392505050565b60605f60016117af8461195e565b0190505f8167ffffffffffffffff8111156117cd576117cc611e4e565b5b6040519080825280601f01601f1916602001820160405280156117ff5781602001600182028036833780820191505090505b5090505f82602001820190505b600115611860578080600190039150507f3031323334353637383961626364656600000000000000000000000000000000600a86061a8153600a8581611855576118546127ab565b5b0494505f850361180c575b819350505050919050565b5f73ffffffffffffffffffffffffffffffffffffffff168273ffffffffffffffffffffffffffffffffffffffff16036118db575f6040517f64a0ae920000000000000000000000000000000000000000000000000000000081526004016118d29190611cba565b60405180910390fd5b5f6118e783835f610b9d565b90505f73ffffffffffffffffffffffffffffffffffffffff168173ffffffffffffffffffffffffffffffffffffffff1614611959575f6040517f73c6ac6e0000000000000000000000000000000000000000000000000000000081526004016119509190611cba565b60405180910390fd5b505050565b5f805f90507a184f03e93ff9f4daa797ed6e38ed64bf6a1f01000000000000000083106119ba577a184f03e93ff9f4daa797ed6e38ed64bf6a1f01000000000000000083816119b0576119af6127ab565b5b0492506040810190505b6d04ee2d6d415b85acef810000000083106119f7576d04ee2d6d415b85acef810000000083816119ed576119ec6127ab565b5b0492506020810190505b662386f26fc100008310611a2657662386f26fc100008381611a1c57611a1b6127ab565b5b0492506010810190505b6305f5e1008310611a4f576305f5e1008381611a4557611a446127ab565b5b0492506008810190505b6127108310611a74576127108381611a6a57611a696127ab565b5b0492506004810190505b60648310611a975760648381611a8d57611a8c6127ab565b5b0492506002810190505b600a8310611aa6576001810190505b80915050919050565b5f604051905090565b5f80fd5b5f80fd5b5f7fffffffff0000000000000000000000000000000000000000000000000000000082169050919050565b611af481611ac0565b8114611afe575f80fd5b50565b5f81359050611b0f81611aeb565b92915050565b5f60208284031215611b2a57611b29611ab8565b5b5f611b3784828501611b01565b91505092915050565b5f8115159050919050565b611b5481611b40565b82525050565b5f602082019050611b6d5f830184611b4b565b92915050565b5f81519050919050565b5f82825260208201905092915050565b5f5b83811015611baa578082015181840152602081019050611b8f565b5f8484015250505050565b5f601f19601f8301169050919050565b5f611bcf82611b73565b611bd98185611b7d565b9350611be9818560208601611b8d565b611bf281611bb5565b840191505092915050565b5f6020820190508181035f830152611c158184611bc5565b905092915050565b5f819050919050565b611c2f81611c1d565b8114611c39575f80fd5b50565b5f81359050611c4a81611c26565b92915050565b5f60208284031215611c6557611c64611ab8565b5b5f611c7284828501611c3c565b91505092915050565b5f73ffffffffffffffffffffffffffffffffffffffff82169050919050565b5f611ca482611c7b565b9050919050565b611cb481611c9a565b82525050565b5f602082019050611ccd5f830184611cab565b92915050565b611cdc81611c9a565b8114611ce6575f80fd5b50565b5f81359050611cf781611cd3565b92915050565b5f8060408385031215611d1357611d12611ab8565b5b5f611d2085828601611ce9565b9250506020611d3185828601611c3c565b9150509250929050565b5f60208284031215611d5057611d4f611ab8565b5b5f611d5d84828501611ce9565b91505092915050565b5f805f60608486031215611d7d57611d7c611ab8565b5b5f611d8a86828701611ce9565b9350506020611d9b86828701611ce9565b9250506040611dac86828701611c3c565b9150509250925092565b611dbf81611c1d565b82525050565b5f602082019050611dd85f830184611db6565b92915050565b611de781611b40565b8114611df1575f80fd5b50565b5f81359050611e0281611dde565b92915050565b5f8060408385031215611e1e57611e1d611ab8565b5b5f611e2b85828601611ce9565b9250506020611e3c85828601611df4565b9150509250929050565b5f80fd5b5f80fd5b7f4e487b71000000000000000000000000000000000000000000000000000000005f52604160045260245ffd5b611e8482611bb5565b810181811067ffffffffffffffff82111715611ea357611ea2611e4e565b5b80604052505050565b5f611eb5611aaf565b9050611ec18282611e7b565b919050565b5f67ffffffffffffffff821115611ee057611edf611e4e565b5b611ee982611bb5565b9050602081019050919050565b828183375f83830152505050565b5f611f16611f1184611ec6565b611eac565b905082815260208101848484011115611f3257611f31611e4a565b5b611f3d848285611ef6565b509392505050565b5f82601f830112611f5957611f58611e46565b5b8135611f69848260208601611f04565b91505092915050565b5f805f8060808587031215611f8a57611f89611ab8565b5b5f611f9787828801611ce9565b9450506020611fa887828801611ce9565b9350506040611fb987828801611c3c565b925050606085013567ffffffffffffffff811115611fda57611fd9611abc565b5b611fe687828801611f45565b91505092959194509250565b5f67ffffffffffffffff82111561200c5761200b611e4e565b5b61201582611bb5565b9050602081019050919050565b5f61203461202f84611ff2565b611eac565b9050828152602081018484840111156120505761204f611e4a565b5b61205b848285611ef6565b509392505050565b5f82601f83011261207757612076611e46565b5b8135612087848260208601612022565b91505092915050565b5f80604083850312156120a6576120a5611ab8565b5b5f6120b385828601611ce9565b925050602083013567ffffffffffffffff8111156120d4576120d3611abc565b5b6120e085828601612063565b9150509250929050565b5f6040820190508181035f8301526121028185611bc5565b90506121116020830184611cab565b9392505050565b5f806040838503121561212e5761212d611ab8565b5b5f61213b85828601611ce9565b925050602061214c85828601611ce9565b9150509250929050565b7f4e487b71000000000000000000000000000000000000000000000000000000005f52602260045260245ffd5b5f600282049050600182168061219a57607f821691505b6020821081036121ad576121ac612156565b5b50919050565b5f6060820190506121c65f830186611cab565b6121d36020830185611db6565b6121e06040830184611cab565b949350505050565b7f5065726d6973736f6e2044656e696564000000000000000000000000000000005f82015250565b5f61221c601083611b7d565b9150612227826121e8565b602082019050919050565b5f6020820190508181035f83015261224981612210565b9050919050565b7f53747564656e74204365727469666963617465204e465420416c7265616479205f8201527f4578697374730000000000000000000000000000000000000000000000000000602082015250565b5f6122aa602683611b7d565b91506122b582612250565b604082019050919050565b5f6020820190508181035f8301526122d78161229e565b9050919050565b7f4e487b71000000000000000000000000000000000000000000000000000000005f52601160045260245ffd5b5f61231582611c1d565b91507fffffffffffffffffffffffffffffffffffffffffffffffffffffffffffffffff8203612347576123466122de565b5b600182019050919050565b7f53747564656e74204365727469666963617465204e4654206e6f7420497373755f8201527f6564000000000000000000000000000000000000000000000000000000000000602082015250565b5f6123ac602283611b7d565b91506123b782612352565b604082019050919050565b5f6020820190508181035f8301526123d9816123a0565b9050919050565b5f81519050919050565b5f82825260208201905092915050565b5f612404826123e0565b61240e81856123ea565b935061241e818560208601611b8d565b61242781611bb5565b840191505092915050565b5f6080820190506124455f830187611cab565b6124526020830186611cab565b61245f6040830185611db6565b818103606083015261247181846123fa565b905095945050505050565b5f8151905061248a81611aeb565b92915050565b5f602082840312156124a5576124a4611ab8565b5b5f6124b28482850161247c565b91505092915050565b5f81905092915050565b5f6124cf82611b73565b6124d981856124bb565b93506124e9818560208601611b8d565b80840191505092915050565b5f61250082856124c5565b915061250c82846124c5565b91508190509392505050565b5f819050815f5260205f209050919050565b5f6020601f8301049050919050565b5f82821b905092915050565b5f600883026125747fffffffffffffffffffffffffffffffffffffffffffffffffffffffffffffffff82612539565b61257e8683612539565b95508019841693508086168417925050509392505050565b5f819050919050565b5f6125b96125b46125af84611c1d565b612596565b611c1d565b9050919050565b5f819050919050565b6125d28361259f565b6125e66125de826125c0565b848454612545565b825550505050565b5f90565b6125fa6125ee565b6126058184846125c9565b505050565b5b818110156126285761261d5f826125f2565b60018101905061260b565b5050565b601f82111561266d5761263e81612518565b6126478461252a565b81016020851015612656578190505b61266a6126628561252a565b83018261260a565b50505b505050565b5f82821c905092915050565b5f61268d5f1984600802612672565b1980831691505092915050565b5f6126a5838361267e565b9150826002028217905092915050565b6126be82611b73565b67ffffffffffffffff8111156126d7576126d6611e4e565b5b6126e18254612183565b6126ec82828561262c565b5f60209050601f83116001811461271d575f841561270b578287015190505b612715858261269a565b86555061277c565b601f19841661272b86612518565b5f5b828110156127525784890151825560018201915060208501945060208101905061272d565b8683101561276f578489015161276b601f89168261267e565b8355505b6001600288020188555050505b505050505050565b5f6040820190506127975f830185611cab565b6127a46020830184611db6565b9392505050565b7f4e487b71000000000000000000000000000000000000000000000000000000005f52601260045260245ffdfea2646970667358221220960ec10a4036a7a8402e2941cf32f10a70ba69510bae10e00a2436439b113faf64736f6c63430008150033",
  "immutableReferences": {},
  "source": "// SPDX-License-Identifier: MIT\n// Compatible with OpenZeppelin Contracts ^5.0.0\npragma solidity ^0.8.20;\n\nimport \"@openzeppelin/contracts/token/ERC721/ERC721.sol\";\nimport \"@openzeppelin/contracts/token/ERC721/extensions/ERC721URIStorage.sol\";\n\n\ncontract certificateToNFT is ERC721, ERC721URIStorage{\n    uint256 private _nextTokenId;\n    address private institute;\n\n    mapping(address => uint256) private addressTotokenId;\n\n    mapping(address => bool) public isCertificateNFTAlreadyExists;\n\n    modifier onlyInstiute() {\n      require(msg.sender == institute, \"Permisson Denied\");\n      _;\n    }\n\n    constructor(address _institute, string memory name, string memory symbol)\n        ERC721(name, symbol){\n           institute = _institute;\n        }\n\n    function safeMint(address _studentAddress, string memory ipfs_hash) external onlyInstiute {\n\n        require(!isCertificateNFTAlreadyExists[_studentAddress], \"Student Certificate NFT Already Exists\");\n\n        uint256 tokenId = _nextTokenId++;\n        _safeMint(_studentAddress, tokenId);\n        _setTokenURI(tokenId, ipfs_hash);\n\n        addressTotokenId[_studentAddress] = tokenId;\n\n        isCertificateNFTAlreadyExists[_studentAddress] = true;\n\n    }\n\n    function getIpfsHash(address _studentAddress) public view returns (string memory ipfs_hash , address student){\n         require(isCertificateNFTAlreadyExists[_studentAddress], \"Student Certificate NFT not Issued\");\n         uint256 tokenId = addressTotokenId[_studentAddress];\n         string memory ipfsHash = tokenURI(tokenId);\n         return (ipfsHash,_studentAddress);\n    }\n\n    function tokenURI(uint256 tokenId)\n        public\n        view\n        override(ERC721, ERC721URIStorage)\n        returns (string memory)\n    {\n        return super.tokenURI(tokenId);\n    }\n\n\n\n    function supportsInterface(bytes4 interfaceId)\n        public\n        view\n        override(ERC721, ERC721URIStorage)\n        returns (bool)\n    {\n        return super.supportsInterface(interfaceId);\n    }\n}\n",
  "sourcePath": "/home/user/Documents/dapp/SVIS/contracts/certificateToNFT.sol",
  "compiler": {
    "name": "solc",
    "version": "0.8.21+commit.d9974bed.Emscripten.clang"
  },
  "schemaVersion": "3.4.16",
  "updatedAt": "2024-06-11T10:51:21.048Z",
  "networkType": "ethereum",
  "devdoc": {
    "errors": {
      "ERC721IncorrectOwner(address,uint256,address)": [
        {
          "details": "Indicates an error related to the ownership over a particular token. Used in transfers.",
          "params": {
            "owner": "Address of the current owner of a token.",
            "sender": "Address whose tokens are being transferred.",
            "tokenId": "Identifier number of a token."
          }
        }
      ],
      "ERC721InsufficientApproval(address,uint256)": [
        {
          "details": "Indicates a failure with the `operator`s approval. Used in transfers.",
          "params": {
            "operator": "Address that may be allowed to operate on tokens without being their owner.",
            "tokenId": "Identifier number of a token."
          }
        }
      ],
      "ERC721InvalidApprover(address)": [
        {
          "details": "Indicates a failure with the `approver` of a token to be approved. Used in approvals.",
          "params": {
            "approver": "Address initiating an approval operation."
          }
        }
      ],
      "ERC721InvalidOperator(address)": [
        {
          "details": "Indicates a failure with the `operator` to be approved. Used in approvals.",
          "params": {
            "operator": "Address that may be allowed to operate on tokens without being their owner."
          }
        }
      ],
      "ERC721InvalidOwner(address)": [
        {
          "details": "Indicates that an address can't be an owner. For example, `address(0)` is a forbidden owner in EIP-20. Used in balance queries.",
          "params": {
            "owner": "Address of the current owner of a token."
          }
        }
      ],
      "ERC721InvalidReceiver(address)": [
        {
          "details": "Indicates a failure with the token `receiver`. Used in transfers.",
          "params": {
            "receiver": "Address to which tokens are being transferred."
          }
        }
      ],
      "ERC721InvalidSender(address)": [
        {
          "details": "Indicates a failure with the token `sender`. Used in transfers.",
          "params": {
            "sender": "Address whose tokens are being transferred."
          }
        }
      ],
      "ERC721NonexistentToken(uint256)": [
        {
          "details": "Indicates a `tokenId` whose `owner` is the zero address.",
          "params": {
            "tokenId": "Identifier number of a token."
          }
        }
      ]
    },
    "events": {
      "Approval(address,address,uint256)": {
        "details": "Emitted when `owner` enables `approved` to manage the `tokenId` token."
      },
      "ApprovalForAll(address,address,bool)": {
        "details": "Emitted when `owner` enables or disables (`approved`) `operator` to manage all of its assets."
      },
      "BatchMetadataUpdate(uint256,uint256)": {
        "details": "This event emits when the metadata of a range of tokens is changed. So that the third-party platforms such as NFT market could timely update the images and related attributes of the NFTs."
      },
      "MetadataUpdate(uint256)": {
        "details": "This event emits when the metadata of a token is changed. So that the third-party platforms such as NFT market could timely update the images and related attributes of the NFT."
      },
      "Transfer(address,address,uint256)": {
        "details": "Emitted when `tokenId` token is transferred from `from` to `to`."
      }
    },
    "kind": "dev",
    "methods": {
      "approve(address,uint256)": {
        "details": "See {IERC721-approve}."
      },
      "balanceOf(address)": {
        "details": "See {IERC721-balanceOf}."
      },
      "getApproved(uint256)": {
        "details": "See {IERC721-getApproved}."
      },
      "isApprovedForAll(address,address)": {
        "details": "See {IERC721-isApprovedForAll}."
      },
      "name()": {
        "details": "See {IERC721Metadata-name}."
      },
      "ownerOf(uint256)": {
        "details": "See {IERC721-ownerOf}."
      },
      "safeTransferFrom(address,address,uint256)": {
        "details": "See {IERC721-safeTransferFrom}."
      },
      "safeTransferFrom(address,address,uint256,bytes)": {
        "details": "See {IERC721-safeTransferFrom}."
      },
      "setApprovalForAll(address,bool)": {
        "details": "See {IERC721-setApprovalForAll}."
      },
      "symbol()": {
        "details": "See {IERC721Metadata-symbol}."
      },
      "transferFrom(address,address,uint256)": {
        "details": "See {IERC721-transferFrom}."
      }
    },
    "version": 1
  },
  "userdoc": {
    "kind": "user",
    "methods": {},
    "version": 1
  }
}